:020000040000FA
:100000000C945D000C94EE090C94C7090C948500C7
:100010000C9485000C9485000C9485000C9485004C
:100020000C9485000C9485000C9485000C9485003C
:100030000C9485000C9485000C9485000C9485002C
:100040000C947D090C9485000C944B090C942509A3
:100050000C9485000C9485000C9485000C9485000C
:100060000C9485000C9485000000000025002800F9
:100070002B0000000008000201000003040700003C
:1000800000000000000000000000240027002A00FB
:10009000010204081020408001020408102001021F
:1000A00004081020040404040404040402020202EC
:1000B0000202030303030303150A11241FBECFEF3B
:1000C000D8E0DEBFCDBF12E0A0E0B1E0E8E3F2E2AD
:1000D00002C005900D92AC3CB107D9F724E0ACEC1E
:1000E000B2E001C01D92A630B207E1F710E0CDE505
:1000F000D0E004C02197FE010E941411CC35D10735
:10010000C9F70E94BB0A0C941A110C9400008CBD14
:100110009DBD0895AF92BF92CF92DF92EF92FF9272
:100120000F931F93CF93DF936C017B018B01040F1F
:10013000151FEB015E01AE18BF08C017D10759F0BB
:100140006991D601ED91FC910190F081E02DC601FD
:100150000995892B79F7C501DF91CF911F910F91F7
:10016000FF90EF90DF90CF90BF90AF900895FC018B
:10017000538D448D252F30E0842F90E0821B930B0C
:10018000541710F0CF96089501970895FC01918DB2
:10019000828D981761F0A28DAE0FBF2FB11D5D96B5
:1001A0008C91928D9F5F9F73928F90E008958FEF57
:1001B0009FEF0895FC01918D828D981731F0828D0B
:1001C000E80FF11D858D90E008958FEF9FEF089562
:1001D000FC01918D228D892F90E0805C9F4F821BC6
:1001E00091098F73992708958BEF92E00E94E800A0
:1001F00021E0892B09F420E0822F089580E090E02F
:10020000892B29F00E94F40081110C9400000895BC
:10021000FC01A48DA80FB92FB11DA35ABF4F2C917B
:10022000848D90E001968F739927848FA689B78972
:100230002C93A089B1898C91837080648C93938D69
:10024000848D981306C00288F389E02D80818F7D0C
:1002500080830895EF92FF920F931F93CF93DF93C4
:10026000EC0181E0888F9B8D8C8D98131AC0E889F2
:10027000F989808185FF15C09FB7F894EE89FF89C1
:100280006083E889F98980818370806480839FBF5F
:1002900081E090E0DF91CF911F910F91FF90EF905F
:1002A0000895F62E0B8D10E00F5F1F4F0F7311276F
:1002B000E02E8C8D8E110CC00FB607FCFACFE889AA
:1002C000F989808185FFF5CFCE010E940801F1CF29
:1002D000EB8DEC0FFD2FF11DE35AFF4FF0829FB71E
:1002E000F8940B8FEA89FB8980818062CFCFCF930E
:1002F000DF93EC01888D8823B9F0AA89BB89E8894E
:10030000F9898C9185FD03C0808186FD0DC00FB6F3
:1003100007FCF7CF8C9185FFF2CF808185FFEDCF71
:10032000CE010E940801E9CFDF91CF91089590E0BE
:10033000FC01EE58FF4F2491FC01E057FF4F349130
:10034000FC01EC55FF4FE491EE23C9F0222339F074
:10035000233001F1A8F4213019F1223029F1F0E025
:10036000EE0FFF1FE859FF4FA591B4918FB7F89496
:10037000EC91611126C030953E233C938FBF0895C8
:100380002730A9F02830C9F0243049F78091800047
:100390008F7D03C0809180008F7780938000DFCFB6
:1003A00084B58F7784BDDBCF84B58F7DFBCF809103
:1003B000B0008F778093B000D2CF8091B0008F7D56
:1003C000F9CF3E2BDACFCF93DF9390E0FC01E057DB
:1003D000FF4F24918C559F4FFC0184918823C9F0D5
:1003E00090E0880F991FFC01EA57FF4FA591B49147
:1003F000FC01E859FF4FC591D49161110DC09FB721
:10040000F8948C91209582238C93888128232883CB
:100410009FBFDF91CF910895623051F49FB7F89458
:100420003C91822F809583238C93E8812E2BEFCFF4
:100430008FB7F894EC912E2B2C938FBFEACF8E5070
:10044000806480937C0080917A00806480937A003D
:1004500080917A0086FDFCCF8091780090917900A0
:1004600008953FB7F8948091CD029091CE02A0916B
:10047000CF02B091D00226B5A89B05C02F3F19F03E
:100480000196A11DB11D3FBFBA2FA92F982F882714
:10049000BC01CD01620F711D811D911D42E0660FEF
:1004A000771F881F991F4A95D1F708958F929F92C1
:1004B000AF92BF92CF92DF92EF92FF920E943102F1
:1004C0004B015C0184E6C82ED12CE12CF12C0E945A
:1004D0003102681979098A099B09683E73408105D0
:1004E0009105A8F321E0C21AD108E108F10888EECD
:1004F000880E83E0981EA11CB11CC114D104E10434
:10050000F10429F7FF90EF90DF90CF90BF90AF906C
:100510009F908F900895089508958EBD00000DB4AA
:1005200007FEFDCF8EB508951F93CF93DF93EC01A7
:1005300080E591E00E94870060E088890E94970131
:1005400080EA0E948D0280E00E948D02182F61E0F7
:1005500088890E949701812FDF91CF911F91089583
:10056000FF920F931F93CF93DF93EC01F62E042F8E
:10057000122F80E591E00E94870060E088890E9448
:10058000970185E00E948D028F2D0E948D02802FA1
:100590000E948D02812F0E948D0261E08889DF9187
:1005A000CF911F910F91FF900C949701DF92EF92E2
:1005B000FF920F931F93CF93DF937C01C62FD42E0E
:1005C000152F022F80E591E00E94870060E0F7017F
:1005D00080890E94970182E00E948D028C2F0E94E8
:1005E0008D02CD2DD12F0C0F1D2F111DC017D1073E
:1005F00021F089910E948D02F9CF61E0F701808995
:10060000DF91CF911F910F91FF90EF90DF900C94AD
:100610009701CF93DF9300D000D0CDB7DEB71C8217
:100620001B82613099F498E09A83198224E0AE012C
:100630004F5F5F4F682F84EF93E00E94D6020F90C8
:100640000F900F900F90DF91CF9108951A82EDCF08
:100650000F931F93CF93DF93EC01062F142F80E5A8
:1006600091E00E94870060E088890E94970182E003
:100670000E948D02802F0E948D02812F0E948D0288
:1006800061E08889DF91CF911F910F910C949701C0
:10069000DF92EF92FF920F931F93CF93DF937C0132
:1006A000C62FD42E152F022F80E591E00E948700DF
:1006B00060E0F70180890E94970183E00E948D022B
:1006C0008C2F0E948D02CD2DD12F0C0F1D2F111DAF
:1006D000C017D10729F080E00E948D028993F8CFDE
:1006E00061E0F7018089DF91CF911F910F91FF9019
:1006F000EF90DF900C9497011F93CF93DF93EC0161
:10070000162F80E591E00E94870060E088890E94B2
:10071000970183E00E948D02812F0E948D0280E06C
:100720000E948D02182F61E088890E949701812F15
:10073000DF91CF911F910895CF93C82F282F40EEBE
:100740006FE084EF93E00E94B0026FE084EF93E0EB
:100750000E947C03982F907E81E09C1301C080E072
:10076000CF9108952F923F924F926F927F928F92E6
:100770009F92AF92BF92DF92EF92FF920F931F93DF
:10078000CF93DF9300D000D0CDB7DEB78C01B12C72
:10079000A12C2090050130900601409007014E01E8
:1007A00084E0880E911C29823A824B82FE013196A8
:1007B0003F01DE2EE72CF301F1903F016F2DC801C0
:1007C0000E947C0383FD0DC0F39480E0FFEFAF1A1D
:1007D000BF0A823061F482E3A816B10421F796E0E3
:1007E00072C06814790439F7F12C82E0EFCF92E3FC
:1007F000A916B104A1F3F8012581A8014A5F5F4F52
:1008000065E06F0DC8010E94D602F801868581302F
:1008100019F4858180648583F801458164E06F0D5A
:10082000C8010E942803F80181819281A381B481CB
:1008300020812130B1F58C839B83CD01AA27BB2772
:10084000282F23702860382F330F330F330F307E5B
:10085000232B2A8335E0969587953A95E1F789838E
:1008600024E04D2D5E2D6F2DC8010E94D602FA9412
:1008700028E048E06F2DC8010E94B002B12CA12CE5
:10088000FFEFAF1ABF0A6F2DC8010E947C03982F9B
:10089000987083FF14C082E3A816B10489F797E02B
:1008A00012C09C0193E0369527959A95E1F729832C
:1008B0008295880F807E8A831C821B82D1CFE2E3DF
:1008C000AE16B10461F3892F0F900F900F900F9027
:1008D000DF91CF911F910F91FF90EF90DF90BF902C
:1008E000AF909F908F907F906F904F903F902F9000
:1008F0000895EF92FF920F931F93CF93DF9300D051
:1009000000D0CDB7DEB78C01F62EFC01108211822B
:1009100012821382148224E0AE014F5F5F4F0E9467
:1009200048032A818981F8E08F9FC0011124422F5A
:1009300050E065E0559547956A95E1F7840F951F5E
:10094000092E000CAA0BBB0BF80181839283A383B1
:10095000B48323FF24C032E0880F991FAA1FBB1F56
:100960003A95D1F72370820F911DA11DB11DBA2FA9
:10097000A92F982F88272B81820F911DA11DB11DB2
:10098000BA2FA92F982F88272C81820F911DA11D86
:10099000B11D81839283A383B48381E080836FEF51
:1009A0006F0DC8010E947C03E82E64E06F0DC80142
:1009B0000E947C03F8018583E3FE19C091E09687CD
:1009C000282F2F70F8012583A8014A5F5F4F65E04B
:1009D0006F0DC8010E9448030F900F900F900F9069
:1009E000DF91CF911F910F91FF90EF9008951686A0
:1009F000E7CFCF92DF92EF92FF920F931F93CF93A7
:100A0000DF93EC016B017A0189010E94940280FF5F
:100A10003CC061E6CE010E94790420E041E06CE236
:100A2000CE010E94B0028881882349F089819A8191
:100A3000AB81BC81B06889839A83AB83BC838E858C
:100A4000882349F089819A81AB81BC81B064898314
:100A50009A83AB83BC8389819A81AB81BC81F60187
:100A600080839183A283B3838D81F7018083DE012C
:100A70001696F8012D81CF01801B910B28171906BE
:100A8000B9F0B4F08D918193F5CF81FF07C061E794
:100A9000CE010E94790420E042E0C1CF84E0DF91E2
:100AA000CF911F910F91FF90EF90DF90CF9008951D
:100AB00080E0F5CF0F931F93CF93DF9300D000D04A
:100AC00000D0CDB7DEB78C01FC013896CB0108967B
:100AD000DB012D91BD0121938A179B07C9F7F8010E
:100AE00080858039B9F582858D8383858E83848561
:100AF0008B8385858C838685898387858A838D8191
:100B00009E81092E000CAA0BBB0B808F918FA28FA8
:100B1000B38F8B819C81092E000CAA0BBB0B848B9D
:100B2000958BA68BB78B89819A81092E000CAA0B15
:100B3000BB0B808B918BA28BB38B81E090E02696D0
:100B40000FB6F894DEBF0FBECDBFDF91CF911F91DE
:100B50000F9108958B39E1F481859385998394856C
:100B60009A83082E000C990B91A780A769817A813E
:100B700090E080E00E94E40F2DEC3CEC4CEC5DE357
:100B80000E949B10F80162A373A384A395A3D5CF01
:100B9000823A99F6818592859B8393859C8394857F
:100BA000998395859A83082E000C990B91A780A7AD
:100BB0008B819C8191A380A389819A81092E000C4D
:100BC000AA0BBB0B848F958FA68FB78FB6CFCF9212
:100BD000DF92EF92FF920F931F93CF93DF93CDB7E6
:100BE000DEB72D970FB6F894DEBF0FBECDBF8C01D8
:100BF0000E943102F80162A773A784A795A71D86FA
:100C00000E943102F801C2A4D3A4E4A4F5A4AB016C
:100C1000BC014C195D096E097F0984819581092EFB
:100C2000000CAA0BBB0B481759076A077B0788F013
:100C300090E080E02D960FB6F894DEBF0FBECDBFDA
:100C4000DF91CF911F910F91FF90EF90DF90CF90A8
:100C50000895868197810E949402837089F29E0193
:100C60002F5F3F4FAE01435F5F4FBE01675F7F4F16
:100C7000F801868197810E94F904F8014081518131
:100C80006281738189859A85AB85BC854817590730
:100C90006A077B0709F0B4CF8D85883049F6BE011D
:100CA0006F5F7F4FC8010E945A05C4CF0F931F93F7
:100CB000CF93DF93CDB7DEB728970FB6F894DEBF9A
:100CC0000FBECDBF8C0188E09E012F5F3F4FD90141
:100CD000E82F1D92EA95E9F790E99983D8011696D5
:100CE000ED91FC9117974D915D916D917C914183B0
:100CF000528363837483168610828583B901CF0182
:100D000006969F01225F3F4FDB014D91BD01DC0143
:100D10004D93CD01A217B307B9F7CF010E94B203DB
:100D200081110DC0C80128960FB6F894DEBF0FBE22
:100D3000CDBFDF91CF911F910F910C94E70590E00B
:100D400080E028960FB6F894DEBF0FBECDBFDF91CE
:100D5000CF911F910F9108950F931F93CF93DF931E
:100D6000CDB7DEB728970FB6F894DEBF0FBECDBF64
:100D70008C0188E09E012F5F3F4FD901E82F1D9223
:100D8000EA95E9F79BE99983D8011696ED91FC91D4
:100D900017974D915D916D917C914183528363834F
:100DA0007483168610828583B901CF0106969F0150
:100DB000225F3F4FDB014D91BD01DC014D93CD0121
:100DC000A217B307B9F7CF010E94B20381110DC07A
:100DD000C80128960FB6F894DEBF0FBECDBFDF91D5
:100DE000CF911F910F910C94E70590E080E0289639
:100DF0000FB6F894DEBF0FBECDBFDF91CF911F912C
:100E00000F910895CF93DF93CDB7DEB728970FB634
:100E1000F894DEBF0FBECDBF19821A821B821C82DE
:100E200022EA29834D835E836F837887DC011696DF
:100E3000ED91FC9117974D915D916D917C9141835E
:100E40005283638374831686108288E08583CE0183
:100E50000196BF016A5F7F4F9F01225F3F4FDC0118
:100E60004D91CD01DB014D93BD01A217B307B9F739
:100E7000CF010E94B20321E030E0882311F030E07E
:100E800020E0C90128960FB6F894DEBF0FBECDBF93
:100E9000DF91CF9108950F931F93CF93DF93CDB739
:100EA000DEB728970FB6F894DEBF0FBECDBF9C010A
:100EB00098E08E010F5F1F4FD801E92F1D92EA9530
:100EC000E9F780E88983D9011696ED91FC9117978F
:100ED0004D915D916D917C914183528363837483C5
:100EE000168610829583B801CF0106969F01225F76
:100EF0003F4FDB014D91BD01DC014D93CD01A217A8
:100F0000B307B9F7CF010E94B20321E030E0882394
:100F100011F030E020E0C90128960FB6F894DEBF4A
:100F20000FBECDBFDF91CF911F910F910895FC01AE
:100F300001900020E9F73197AF01481B590BBC0124
:100F40008BEF92E00C948A0087ED91E00C94970768
:100F50008F929F92AF92BF920F931F93CF93DF9385
:100F6000CDB7DEB7A1970FB6F894DEBF0FBECDBFE9
:100F700019A2423008F44AE08E010F5D1F4F842E03
:100F8000912CB12CA12CA50194010E94990EE62F61
:100F9000B901CA01EA30F4F4E05DD801EE938D01A5
:100FA000232B242B252B79F790E080E0109719F064
:100FB000CD010E949707A1960FB6F894DEBF0FBE31
:100FC000CDBFDF91CF911F910F91BF90AF909F90B8
:100FD0008F900895E95CE1CFCF92DF92EF92FF927C
:100FE000CF93DF9397FF1BC06B017C016DE28BEF0A
:100FF00092E00E942A01EC0166277727CB016C1949
:101000007D098E099F094AE00E94A8078C0F9D1F49
:10101000DF91CF91FF90EF90DF90CF9008954AE05D
:10102000DF91CF91FF90EF90DF90CF900C94A807C5
:10103000CF93DF930E949707EC010E94A4078C0FC7
:101040009D1FDF91CF910895809104018823C1F005
:101050008AE191E00E94180886EC93E00E944B0719
:10106000892B21F487E391E00E94180888E993E036
:101070000E944B07892B21F489E591E00E94180812
:101080008091040191E089278093040108950C94D4
:1010900097074F925F926F927F928F929F92AF923B
:1010A000BF92CF92DF92EF92FF920F931F93CF9355
:1010B0006B017C01742EAC019B010E9408118823F6
:1010C00099F08BE791E0CF911F910F91FF90EF90F6
:1010D000DF90CF90BF90AF909F908F907F906F9058
:1010E0005F904F900C94970746015701E894B7F82A
:1010F0002FEF3FEF4FE75FE7C501B4010E940811F2
:1011000081110DC02FEF3FEF4FE75FE7C501B4013D
:101110000E94370F18161CF48FE791E0D4CF2FEF01
:101120003FEF4FE75FE4C701B6010E949610181623
:101130001CF483E891E0C7CF2FEF3FEF4FE75FEC60
:10114000C701B6010E94370F87FDF3CF20E030E0E2
:10115000A901C701B6010E94370F10E000E087FF28
:101160000AC06DE28BEF92E00E942A018C01F7FA2F
:10117000F094F7F8F094C0E060E070E080E09FE366
:101180007C1641F020E030E040E251E40E943C0F48
:10119000CF5FF6CFA70196010E94CB0E2B013C0139
:1011A0000E94B50F4B015C014AE00E94A8077C0138
:1011B000E00EF11ECC23C1F1C501B4010E94E40F81
:1011C0009B01AC01C301B2010E94CA0E4B015C013C
:1011D0006EE28BEF92E00E942A01E80EF91EC150E8
:1011E00018F120E030E040E251E4C501B4010E9472
:1011F0009B102B013C010E94B50F4B01B12CA12C7F
:101200004AE0C501B4010E94A807E80EF91EC50115
:10121000B4010E94E40F9B01AC01C301B2010E9422
:10122000CA0E4B015C01DBCFC701CF911F910F911B
:10123000FF90EF90DF90CF90BF90AF909F908F90F6
:101240007F906F905F904F9008951F920F920FB60E
:101250000F9211242F933F934F935F936F937F933C
:101260008F939F93AF93BF93EF93FF938BEF92E096
:101270000E940801FF91EF91BF91AF919F918F91D3
:101280007F916F915F914F913F912F910F900FBE82
:101290000F901F9018951F920F920FB60F92112466
:1012A0002F938F939F93EF93FF93E0910B03F09114
:1012B0000C038081E0911103F091120382FD1BC0A9
:1012C0009081809114038F5F8F7320911503821793
:1012D00041F0E0911403F0E0E550FD4F958F8093CD
:1012E0001403FF91EF919F918F912F910F900FBE5B
:1012F0000F901F9018958081F4CF1F920F920FB618
:101300000F9211242F933F938F939F93AF93BF938B
:101310008091D2029091D302A091D402B091D502D3
:101320003091CC0223E0230F2D3758F50196A11DF3
:10133000B11D2093CC028093D2029093D302A0934C
:10134000D402B093D5028091CD029091CE02A091AB
:10135000CF02B091D0020196A11DB11D8093CD02A4
:101360009093CE02A093CF02B093D002BF91AF91E1
:101370009F918F913F912F910F900FBE0F901F90D3
:10138000189526E8230F0296A11DB11DD2CF1F92FA
:101390000F920FB60F9211242F933F934F935F93A9
:1013A0006F937F938F939F93AF93BF93EF93FF932D
:1013B000E0910201F09103010995FF91EF91BF9136
:1013C000AF919F918F917F916F915F914F913F91DD
:1013D0002F910F900FBE0F901F9018951F920F9294
:1013E0000FB60F9211242F933F934F935F936F93F8
:1013F0007F938F939F93AF93BF93EF93FF93E0916E
:101400000001F09101010995FF91EF91BF91AF911A
:101410009F918F917F916F915F914F913F912F910C
:101420000F900FBE0F901F901895EF92FF920F93A1
:101430001F93CF93DF93EBEFF2E01382128288EEDB
:1014400093E0A0E0B0E084839583A683B7838CE02B
:1014500091E09183808385EC90E09587848784EC8C
:1014600090E09787868780EC90E0918B808B81EC71
:1014700090E0938B828B82EC90E0958B848B86EC52
:1014800090E0978B868B118E128E138E148E04EF44
:1014900013E089E0F801808B61E00E94970161E030
:1014A000F80180890E94E301C6ECD3E081E491E079
:1014B000A0E0B0E088839983AA83BB8384EFE82E01
:1014C000FF24F394FD82EC821F830E83188A198A0D
:1014D0001A8A1B8A1C8A1D8A1E8A1F8A188E198ED8
:1014E0001A8E1B8E1C8E1D8E1E8E1F8E19A218A288
:1014F0001AA21BA21CA21DA21FA21EA219A618A6F8
:101500000E9431026AA77BA78CA79DA7C8E9D3E0F8
:1015100082E491E0A0E0B0E088839983AA83BB8352
:10152000FD82EC821F830E83188A198A1A8A1B8A0D
:101530001C8A1D8A1E8A1F8A188E198E1A8E1B8E6F
:101540001C8E1D8E1E8E1F8E19A218A21AA21BA2FF
:101550001CA21DA21FA21EA219A618A60E9431023B
:101560006AA77BA78CA79DA7DF91CF911F910F91B1
:10157000FF90EF900895789484B5826084BD84B51F
:10158000816084BD85B5826085BD85B5816085BD7E
:1015900080916E00816080936E0010928100809136
:1015A00081008260809381008091810081608093BE
:1015B0008100809180008160809380008091B100E3
:1015C00084608093B1008091B00081608093B0000E
:1015D00080917A00846080937A0080917A008260A2
:1015E00080937A0080917A00816080937A00809164
:1015F0007A00806880937A001092C100E0910B031A
:10160000F0910C0382E08083E0910703F0910803DE
:101610001082E0910903F0910A0380E18083109227
:101620001303E0910F03F091100386E08083E091B3
:101630000D03F0910E03808180618083E0910D03A2
:10164000F0910E03808188608083E0910D03F0911A
:101650000E03808180688083E0910D03F0910E037A
:1016600080818F7D808360E08EE00E94E30160E0F6
:1016700080E10E94E30162E083E00E94E30184E2F2
:1016800098E0909303018093020180916900837F29
:10169000886080936900E99A9EEAA92E90E0B92EAD
:1016A0002AE9E22E20E0F22EC3E2D0E030E4C32E9D
:1016B000DFB6F8948091D102811125C0F5018491A3
:1016C000F7019491E82FF0E0EE0FFF1FEA57FF4F6C
:1016D000A591B4918C91982321F461E08AE00E9455
:1016E000970161E08AE00E94E3018CB580618CBDC6
:1016F0008CB580648CBD61E08DE00E94E30161E007
:101700008BE00E94E3018091D1028F5F8093D10230
:10171000DFBE80E591E00E94870060E080910404D4
:101720000E94970180EC0E948D0261E08091040488
:101730000E949701CE010197F1F7C092050480E85D
:101740000E949C03882359F087E891E00E94470893
:1017500086EA92E00E9418080E945602A9CF80EB08
:1017600091E00E94470840E06AE284EF93E00E9423
:1017700028034AEC69E284EF93E00E94280341E8E1
:1017800068E284EF93E00E9428038AED91E00E94D2
:10179000470861E080E20E94090361E084E20E9460
:1017A000090361E080E00E94090360E084E00E9498
:1017B000090361E088E00E94090360E080E10E9483
:1017C000090361E084E10E94090360E088E10E946E
:1017D000090310E340E0612F84EF93E00E942803A7
:1017E00060E1610F40E084EF93E00E94280360E233
:1017F000610F40E084EF93E00E9428031F5F1E33D7
:1018000049F740E060E684EF93E00E94280340E05F
:1018100060E784EF93E00E94280343E06BE284EFEB
:1018200093E00E9428034CE36CE084EF93E00E9475
:10183000280340E06DE084EF93E00E94280324E653
:1018400044E660E684EF93E00E94B00220E640E6C2
:1018500060E784EF93E00E94B002809105040E944B
:101860009C03882309F41DC189EF91E06FCF88E9BB
:1018700093E00E945606892B09F433C136C12EEE3F
:1018800032E046EF52E067EF72E084EF93E00E94AF
:10189000F9044091C6035091C7036091C803709149
:1018A000C9038091F7029091F802A091F902B091DA
:1018B000FA02481759076A077B0751F48091F6022C
:1018C000883031F46EEE72E086EC93E00E945A05A7
:1018D000409198035091990360919A0370919B03F2
:1018E0008091F7029091F802A091F902B091FA026A
:1018F000481759076A077B0709F08AC18091F602E9
:10190000883009F085C16EEE72E088E993E00E94AC
:101910005A057EC120E030E040E252ECC501B4013E
:101920000E94961018160CF4E1C18092DA0290928F
:10193000DB02A092DC02B092DD0220E030E0A901DF
:10194000C701B6010E949610181674F420E030E02A
:1019500040E252E4C701B6010E94370F87FF0EC074
:10196000C12CD12C76010AC020E030E040E252ECDC
:10197000C701B6010E949610181694F3C092D602C1
:10198000D092D702E092D802F092D902A701960134
:10199000C501B4010E94CB0E2FE638E54BE550E4BB
:1019A0000E949B102B013C014092E6025092E702FC
:1019B0006092E8027092E902A5019401C701B601A4
:1019C0000E94CA0E2FE638E54BE550E40E949B10BA
:1019D0006093E2027093E3028093E4029093E50245
:1019E00020E030E048EC52E4C301B2010E949B10B9
:1019F0000E94AE0FAB01BC0186EC93E00E9402078F
:101A0000892B21F48AE492E00E94180820E030E05B
:101A100048EC52E46091E2027091E3028091E402AA
:101A20009091E5020E949B100E94AE0FAB01BC0199
:101A300088E993E00E940207892B21F48CE692E06A
:101A40000E9418086091E6037091E703072E000CCE
:101A5000880B990B0E94EC0787E492E00E944708EC
:101A60006091B8037091B903072E000C880B990B95
:101A70000E94EC070E94A4070E9431026093EA02D0
:101A80007093EB028093EC029093ED02209709F49F
:101A9000BFC00E94F400882309F4BAC00E9400006D
:101AA000B7C08EE892E00E9418081092050480E00A
:101AB0000E949C0386EC93E00E94AC06892B31F0D7
:101AC00086EC93E00E945606892B21F481E292E095
:101AD0000E94180888E993E00E94AC06892B09F05F
:101AE000C6CE84E392E00E9418086091E8037091EA
:101AF000E9038091EA039091EB0342E00E944908D8
:101B000087E492E00E9447086091BA037091BB039A
:101B10008091BC039091BD0342E00E9449080E945D
:101B2000A4076091EE037091EF03072E000C880B61
:101B3000990B0E94EC0787E492E00E9447086091AD
:101B4000C0037091C103072E000C880B990B0E94F3
:101B5000EC070E94A4076091DA037091DB03809187
:101B6000DC039091DD030E94EC0787E492E00E9481
:101B700047086091AC037091AD038091AE039091E2
:101B8000AF030E94EC070E94A4076091DE037091EE
:101B9000DF038091E0039091E1030E94EC0787E46A
:101BA00092E00E9447086091B0037091B103809168
:101BB000B2039091B3030E94EC070E94A4076091C6
:101BC000D6037091D7038091D8039091D9030E94D6
:101BD000EC0787E492E00E9447086091A8037091A7
:101BE000A9038091AA039091AB030E94EC070E9485
:101BF000A4078FB7F8944091D2025091D30260911C
:101C0000D4027091D5028FBF0E945602C0E0D0E08E
:101C100084EF93E00E949402837009F030CE8091AB
:101C20000401882309F432CF0E9431020091EA02B4
:101C30001091EB022091EC023091ED02601B710BD0
:101C4000820B930B613177428105910508F41ECF19
:101C50008EE00E941F028C019093E1028093E002CB
:101C600080E10E941F027C019093DF028093DE02DC
:101C700020E931E0D8010E940D112FEF33E040E060
:101C800050E00E947A0ECA01B901685C71098109AD
:101C900091090E94E60F4B015C012CEC31E0D70169
:101CA0000E940D112FEF33E040E050E00E947A0EC9
:101CB000CA01B901665E7109810991090E94E60FA6
:101CC0006B017C0120E030E0A901C501B4010E9454
:101CD000961018160CF01ECE20E030E040E252E4E0
:101CE000C501B4010E94370F87FF1FCE812C912CB4
:101CF00054011BCE052E97FB1EF400940E94910EFA
:101D000057FD07D00E94990E07FC03D04EF40C94A7
:101D1000910E50954095309521953F4F4F4F5F4F15
:101D2000089590958095709561957F4F8F4F9F4F47
:101D30000895A1E21A2EAA1BBB1BFD010DC0AA1F0C
:101D4000BB1FEE1FFF1FA217B307E407F50720F024
:101D5000A21BB30BE40BF50B661F771F881F991F9F
:101D60001A9469F760957095809590959B01AC01E8
:101D7000BD01CF010895A29FB001B39FC001A39FF1
:101D8000700D811D1124911DB29F700D811D1124B4
:101D9000911D08955058BB27AA270E94E20E0C946B
:101DA0005C100E944E1038F00E94551020F039F45B
:101DB0009F3F19F426F40C944B100EF4E095E7FBCA
:101DC0000C944510E92F0E946D1058F3BA17620762
:101DD00073078407950720F079F4A6F50C948F100B
:101DE0000EF4E0950B2EBA2FA02D0B01B901900136
:101DF0000C01CA01A0011124FF27591B99F0593F7A
:101E000050F4503E68F11A16F040A22F232F342FC1
:101E10004427585FF3CF469537952795A795F0400F
:101E20005395C9F77EF41F16BA0B620B730B840B24
:101E3000BAF09150A1F0FF0FBB1F661F771F881FDC
:101E4000C2F70EC0BA0F621F731F841F48F4879534
:101E500077956795B795F7959E3F08F0B0CF939526
:101E6000880F08F09927EE0F9795879508950E949F
:101E7000211008F481E008950E94500F0C945C102A
:101E80000E94551058F00E944E1040F029F45F3F18
:101E900029F00C94451051110C9490100C944B1097
:101EA0000E946D1068F39923B1F3552391F3951BAC
:101EB000550BBB27AA2762177307840738F09F5F6B
:101EC0005F4F220F331F441FAA1FA9F335D00E2ED8
:101ED0003AF0E0E832D091505040E695001CCAF745
:101EE0002BD0FE2F29D0660F771F881FBB1F261708
:101EF00037074807AB07B0E809F0BB0B802DBF01DF
:101F0000FF2793585F4F3AF09E3F510578F00C94AD
:101F100045100C9490105F3FE4F3983ED4F38695FF
:101F200077956795B795F7959F5FC9F7880F911DCE
:101F30009695879597F90895E1E0660F771F881FBA
:101F4000BB1F621773078407BA0720F0621B730B6D
:101F5000840BBA0BEE1F88F7E09508950E94B50F29
:101F60006894B1110C94901008950E94751088F037
:101F70009F5798F0B92F9927B751B0F0E1F0660F4D
:101F8000771F881F991F1AF0BA95C9F714C0B1308E
:101F900091F00E948F10B1E008950C948F10672F7C
:101FA000782F8827B85F39F0B93FCCF386957795BD
:101FB0006795B395D9F73EF49095809570956195A6
:101FC0007F4F8F4F9F4F0895E89409C097FB3EF4D1
:101FD00090958095709561957F4F8F4F9F4F992376
:101FE000A9F0F92F96E9BB279395F69587957795F4
:101FF0006795B795F111F8CFFAF4BB0F11F460FFB4
:102000001BC06F5F7F4F8F4F9F4F16C0882311F00B
:1020100096E911C0772321F09EE8872F762F05C01F
:10202000662371F096E8862F70E060E02AF09A95BA
:10203000660F771F881FDAF7880F9695879597F9AF
:102040000895990F0008550FAA0BE0E8FEEF161649
:102050001706E807F907C0F012161306E407F5079C
:1020600098F0621B730B840B950B39F40A2661F010
:10207000232B242B252B21F408950A2609F4A140B3
:10208000A6958FEF811D811D089597F99F6780E8C0
:1020900070E060E008959FEF80EC089500240A94BA
:1020A0001616170618060906089500240A94121633
:1020B0001306140605060895092E0394000C11F466
:1020C000882352F0BB0F40F4BF2B11F460FF04C013
:1020D0006F5F7F4F8F4F9F4F089557FD9058440F6C
:1020E000551F59F05F3F71F04795880F97FB991F77
:1020F00061F09F3F79F08795089512161306140634
:10210000551FF2CF4695F1DF08C0161617061806C0
:10211000991FF1CF86957105610508940895E8949B
:10212000BB2766277727CB0197F908950E942110D6
:1021300008F48FEF08950E94AE100C945C100E947A
:102140004E1038F00E94551020F0952311F00C9499
:1021500045100C944B1011240C9490100E946D109B
:1021600070F3959FC1F3950F50E0551F629FF001EA
:10217000729FBB27F00DB11D639FAA27F00DB11D03
:10218000AA1F649F6627B00DA11D661F829F22278C
:10219000B00DA11D621F739FB00DA11D621F839F13
:1021A000A00D611D221F749F3327A00D611D231FE9
:1021B000849F600D211D822F762F6A2F11249F5737
:1021C00050409AF0F1F088234AF0EE0FFF1FBB1F3A
:1021D000661F771F881F91505040A9F79E3F5105F9
:1021E00080F00C9445100C9490105F3FE4F3983EFF
:1021F000D4F3869577956795B795F795E7959F5FA3
:10220000C1F7FE2B880F911D9695879597F9089534
:102210000E942110880B990B08950E94BB0EB7FFF6
:102220000895821B930B0895EE0FFF1F0590F49104
:10223000E02D0994F894FFCF8B028B0201304050BF
:10224000000000002A018A00B7007701E800C600FC
:10225000DA00417474656D7074696E6720746F2064
:1022600073746F70206D6F746F72732E2E2E0072E8
:102270006571756573744D6F746F724F6666207407
:102280006F20736572766F31206661696C656421B9
:1022900000726571756573744D6F746F724F666609
:1022A00020746F20736572766F32206661696C6589
:1022B0006421006E616E00696E66006F766600458F
:1022C0006E746572696E6720436F6E6669677572BA
:1022D0006174696F6E204D6F6465204661696C752D
:1022E00072652E2E2E0D0A00456E746572696E673A
:1022F00020436F6E66696775726174696F6E204DF9
:102300006F6465205375636365737366756C210D27
:102310000A0053657474696E672042617564726166
:102320007465205375636365737366756C210D0A5C
:102330000052657475726E696E6720746F205072FA
:102340006576696F7573204D6F6465204661696CB1
:102350007572652E2E2E0D0A00536572766F203130
:1023600020696E6974206661696C2100536572761C
:102370006F203220696E6974206661696C21002CBF
:1023800020007265717565737456656C6F6369744E
:102390007920746F20736572766F31206661696C85
:1023A000656421007265717565737456656C6F6341
:1023B00069747920746F20736572766F322066615C
:1023C000696C6564210043414E2042555320536897
:1023D00069656C6420696E6974206F6B21004341EC
:1023E0004E2042555320536869656C6420696E69BC
:1023F00074206661696C21205265747279696E6718
:042400002E2E2E004E
:107E0000112484B714BE81FFF0D085E080938100F7
:107E100082E08093C00088E18093C10086E0809377
:107E2000C20080E18093C4008EE0C9D0259A86E02C
:107E300020E33CEF91E0309385002093840096BBD3
:107E4000B09BFECF1D9AA8958150A9F7CC24DD24C4
:107E500088248394B5E0AB2EA1E19A2EF3E0BF2EE7
:107E6000A2D0813461F49FD0082FAFD0023811F036
:107E7000013811F484E001C083E08DD089C08234E0
:107E800011F484E103C0853419F485E0A6D080C0E4
:107E9000853579F488D0E82EFF2485D0082F10E0AE
:107EA000102F00270E291F29000F111F8ED06801E7
:107EB0006FC0863521F484E090D080E0DECF843638
:107EC00009F040C070D06FD0082F6DD080E0C81688
:107ED00080E7D80618F4F601B7BEE895C0E0D1E017
:107EE00062D089930C17E1F7F0E0CF16F0E7DF06D8
:107EF00018F0F601B7BEE89568D007B600FCFDCFD4
:107F0000A601A0E0B1E02C9130E011968C91119780
:107F100090E0982F8827822B932B1296FA010C0160
:107F200087BEE89511244E5F5F4FF1E0A038BF0790
:107F300051F7F601A7BEE89507B600FCFDCF97BE46
:107F4000E89526C08437B1F42ED02DD0F82E2BD052
:107F50003CD0F601EF2C8F010F5F1F4F84911BD097
:107F6000EA94F801C1F70894C11CD11CFA94CF0C13
:107F7000D11C0EC0853739F428D08EE10CD085E9AC
:107F80000AD08FE07ACF813511F488E018D01DD067
:107F900080E101D065CF982F8091C00085FFFCCF94
:107FA0009093C60008958091C00087FFFCCF809118
:107FB000C00084FD01C0A8958091C6000895E0E648
:107FC000F0E098E1908380830895EDDF803219F02E
:107FD00088E0F5DFFFCF84E1DECF1F93182FE3DFCA
:107FE0001150E9F7F2DF1F91089580E0E8DFEE27F6
:047FF000FF270994CA
:027FFE00040479
:00000001FF
